1004983173262023010120230131
20000000120230101105045AAAAAAAARPS       0000000000002023010198317326200000000000353PARTICIPANTE                                                               AV PARTICIPANTE                                      1         PARTICIPANTE                  PARTICIPANTE                  São Paulo                                         SP60000000as@as.com                                                                  0T        000041162071        000000016964608000000000000000060090500000000000848230000000000000000N26354244300012400000000   060000007PARTICIPANTE                                                               AV PARTICIPANTE_b                                    0000000001PARTICIPANTE                  PARTICIPANTE                  FORTALEZA                                         CE60000000as@as.com                                                                                         00000000008482330000000000000000000000                                                                                          00000000000000000000000000000000000000000000000000000000000000000000000000000000000000000000000          0000000000000000000000000000000                              0000000000000000000000000                                                                                                                                                              COMISSÃO
20000000220230101105045BBBBBBBBRPS       0000000000002023010198317326200000000000353PARTICIPANTE                                                               AV PARTICIPANTE                                      1         PARTICIPANTE                  PARTICIPANTE                  São Paulo                                         SP60000000as@as.com                                                                  0T        000041162071        000000016964608000000000000000060090500000000000848230000000000000000N26354244300012400000000000000000000PARTICIPANTE                                                               AV PARTICIPANTE                                      0000000001PARTICIPANTE                  PARTICIPANTE                  FORTALEZA                                         CE60000000as@as.com                                                                                         00000000008482330000000000000000000000                                                                                          00000000000000000000000000000000000000000000000000000000000000000000000000000000000000000000000          0000000000000000000000000000000                              0000000000000000000000000                                                                                                                                                              COMISSÃO
20000000320230101105045CCCCCCCCRPS       0000000000002023010198317326200000000000353PARTICIPANTE                                                               AV PARTICIPANTE                                      1         PARTICIPANTE                  PARTICIPANTE                  São Paulo                                         SP60000000as@as.com                                                                  0T        000041162071        000000016964608000000000000000060090500000000000848230000000000000000N10003754309307300000000000000000000PARTICIPANTE                                                               AV PARTICIPANTE                                      0000000001PARTICIPANTE                  PARTICIPANTE                  FORTALEZA                                         CE60000000as@as.com                                                                                         00000000008482330000000000000000000000                                                                                          00000000000000000000000000000000000000000000000000000000000000000000000000000000000000000000000          0000000000000000000000000000000                              0000000000000000000000000                                                                                                                                                              COMISSÃO
20000000420230101105045DDDDDDDDRPS       0000000000002023010198317326200000000000353PARTICIPANTE                                                               AV PARTICIPANTE                                      1         PARTICIPANTE                  PARTICIPANTE                  São Paulo                                         SP60000000as@as.com                                                                  0T        000041162071        000000016964608000000000000000060090500000000000848230000000000000000N2              00000000000000000000PARTICIPANTE                                                                                                                                                                                                                                                                                                                                                        00000000008482330000000000000000000000                                                                                          00000000000000000000000000000000000000000000000000000000000000000000000000000000000000000000000          0000000000000000000000000000000                              0000000000000000000000000                                                                                                                                                              COMISSÃO
20000000520230101105045EEEEEEEERPS       0000000000002023010198317326200000000000353PARTICIPANTE                                                               AV PARTICIPANTE                                      1         PARTICIPANTE                  PARTICIPANTE                  São Paulo                                         SP60000000as@as.com                                                                  0T        000041162071        000000016964608000000000000000060090500000000000848230000000000000000N26354244300012400000000701737700117PARTICIPANTE                                                               AV PARTICIPANTE                                      0000000001PARTICIPANTE                  PARTICIPANTE                  BRASÍLIA                                          DF60000000as@as.com                                                                                         00000000008482330000000000000000000000                                                                                          00000000000000000000000000000000000000000000000000000000000000000000000000000000000000000000000          0000000000000000000000000000000                              0000000000000000000000000                                                                                                                                                              COMISSÃO
20000000620230101105045FFFFFFFFRPS       0000000000002023010198317326200000000000353PARTICIPANTE                                                               AV PARTICIPANTE                                      1         PARTICIPANTE                  PARTICIPANTE                  São Paulo                                         SP60000000as@as.com                                                                  0T        000041162071        000000016964608000000000000000060090500000000000848230000000000000000N26354244300012400000000    43351202PARTICIPANTE                                                               AV PARTICIPANTE                                      0000000001PARTICIPANTE                  PARTICIPANTE                  SALVADOR                                          BA60000000as@as.com                                                                                         00000000008482330000000000000000000000                                                                                          00000000000000000000000000000000000000000000000000000000000000000000000000000000000000000000000          0000000000000000000000000000000                              0000000000000000000000000                                                                                                                                                              COMISSÃO
20000000720230101105045GGGGGGGGRPS       0000000000002023010198317326200000000000353PARTICIPANTE                                                               AV PARTICIPANTE                                      1         PARTICIPANTE                  PARTICIPANTE                  São Paulo                                         SP60000000as@as.com                                                                  0T        000041162071        000000016964608000000000000000060090500000000000848230000000000000000N26354244300020500000000   125922540PARTICIPANTE                                                               AV PARTICIPANTE                                      0000000001PARTICIPANTE                  PARTICIPANTE                  MANAUS                                            AM60000000as@as.com                                                                                         00000000008482330000000000000000000000                                                                                          00000000000000000000000000000000000000000000000000000000000000000000000000000000000000000000000          0000000000000000000000000000000                              0000000000000000000000000                                                                                                                                                              COMISSÃO
20000000820230101105045HHHHHHHHRPS       0000000000002023010198317326200000000000353PARTICIPANTE                                                               AV PARTICIPANTE                                      1         PARTICIPANTE                  PARTICIPANTE                  São Paulo                                         SP60000000as@as.com                                                                  0T        000041162071        000000016964608000000000000000060090500000000000848230000000000000000N26354244300039600000000000000000000PARTICIPANTE                                                               AV PARTICIPANTE                                      0000000001PARTICIPANTE                  PARTICIPANTE                  RECIFE                                            PE60000000as@as.com                                                                                         00000000008482330000000000000000000000                                                                                          00000000000000000000000000000000000000000000000000000000000000000000000000000000000000000000000          0000000000000000000000000000000                              0000000000000000000000000                                                                                                                                                              COMISSÃO
20000000920230101105045IIIIIIIIRPS       0000000000002023010198317326200000000000353PARTICIPANTE                                                               AV PARTICIPANTE                                      1         PARTICIPANTE                  PARTICIPANTE                  São Paulo                                         SP60000000as@as.com                                                                  0T        000041162071        000000016964608000000000000000060090500000000000848230000000000000000N10008598568414800000000000000000000PARTICIPANTE                                                               AV PARTICIPANTE                                      0000000001PARTICIPANTE                  PARTICIPANTE                  FORTALEZA                                         CE60000000as@as.com                                                                                         00000000008482330000000000000000000000                                                                                          00000000000000000000000000000000000000000000000000000000000000000000000000000000000000000000000          0000000000000000000000000000000                              0000000000000000000000000                                                                                                                                                              COMISSÃO
20000001020230101105045JJJJJJJJRPS       0000000000002023010198317326200000000000353PARTICIPANTE                                                               AV PARTICIPANTE                                      1         PARTICIPANTE                  PARTICIPANTE                  São Paulo                                         SP60000000as@as.com                                                                  0T        000041162071        000000016964608000000000000000060090500000000000848230000000000000000N2              00000000000000000000PARTICIPANTE_a                                                                                                                                                                                                                                                                                                                                                      00000000008482330000000000000000000000                                                                                          00000000000000000000000000000000000000000000000000000000000000000000000000000000000000000000000          0000000000000000000000000000000                              0000000000000000000000000                                                                                                                                                              COMISSÃO
20000001120230101105045LLLLLLLLRPS       0000000000002023010198317326200000000000353PARTICIPANTE                                                               AV PARTICIPANTE                                      1         PARTICIPANTE                  PARTICIPANTE                  São Paulo                                         SP60000000as@as.com                                                                  0T        000041162071        000000016964608000000000000000060090500000000000848230000000000000000N26354244300012400000000   060000007PARTICIPANTE_b                                                             AV PARTICIPANTE_b                                    0000000001PARTICIPANTE_b                PARTICIPANTE_b                FORTALEZA                                         CE60000000as@as.com                                                                                         00000000008482330000000000000000000000                                                                                          00000000000000000000000000000000000000000000000000000000000000000000000000000000000000000000000          0000000000000000000000000000000                              0000000000000000000000000                                                                                                                                                              COMISSÃO
20000001220230101105045MMMMMMMMRPS       0000000000002023010198317326200000000000353PARTICIPANTE                                                               AV PARTICIPANTE                                      1         PARTICIPANTE                  PARTICIPANTE                  São Paulo                                         SP60000000as@as.com                                                                  0T        000041162071        000000016964608000000000000000060090500000000000848230000000000000000N26354244300012400000000701737700117PARTICIPANTE_c                                                             AV PARTICIPANTE_c                                    0000000001PARTICIPANTE_c                PARTICIPANTE_c                BRASÍLIA                                          DF60000000as@as.com                                                                                         00000000008482330000000000000000000000                                                                                          00000000000000000000000000000000000000000000000000000000000000000000000000000000000000000000000          0000000000000000000000000000000                              0000000000000000000000000                                                                                                                                                              COMISSÃO
20000001320230101105045NNNNNNNNRPS       0000000000002023010198317326200000000000353PARTICIPANTE                                                               AV PARTICIPANTE                                      1         PARTICIPANTE                  PARTICIPANTE                  São Paulo                                         SP60000000as@as.com                                                                  0T        000041162071        000000016964608000000000000000060090500000000000848230000000000000000N26354244300012400000000000000000000PARTICIPANTE_d                                                             AV PARTICIPANTE_d                                    0000000001PARTICIPANTE_d                PARTICIPANTE_d                FORTALEZA                                         CE60000000as@as.com                                                                                         00000000008482330000000000000000000000                                                                                          00000000000000000000000000000000000000000000000000000000000000000000000000000000000000000000000          0000000000000000000000000000000                              0000000000000000000000000                                                                                                                                                              COMISSÃO
20000001420230101105045OOOOOOOORPS       0000000000002023010198317326200000000000353PARTICIPANTE                                                               AV PARTICIPANTE                                      1         PARTICIPANTE                  PARTICIPANTE                  São Paulo                                         SP60000000as@as.com                                                                  0T        000041162071        000000016964608000000000000000060090500000000000848230000000000000000N10003754309307300000000000000000000PARTICIPANTE_e                                                             AV PARTICIPANTE_e                                    0000000001PARTICIPANTE_e                PARTICIPANTE_e                FORTALEZA                                         CE60000000as@as.com                                                                                         00000000008482330000000000000000000000                                                                                          00000000000000000000000000000000000000000000000000000000000000000000000000000000000000000000000          0000000000000000000000000000000                              0000000000000000000000000                                                                                                                                                              COMISSÃO
20000001520230101105045PPPPPPPPRPS       0000000000002023010198317326200000000000353PARTICIPANTE                                                               AV PARTICIPANTE                                      1         PARTICIPANTE                  PARTICIPANTE                  São Paulo                                         SP60000000as@as.com                                                                  0T        000041162071        000000016964608000000000000000060090500000000000848230000000000000000N10008598568414800000000000000000000PARTICIPANTE_f                                                             AV PARTICIPANTE_f                                    0000000001PARTICIPANTE_f                PARTICIPANTE_f                FORTALEZA                                         CE60000000as@as.com                                                                                         00000000008482330000000000000000000000                                                                                          00000000000000000000000000000000000000000000000000000000000000000000000000000000000000000000000          0000000000000000000000000000000                              0000000000000000000000000                                                                                                                                                              COMISSÃO
90000001000000016964608000000000000000000000000848230000000000000000