1004983173262023010120230131
20000001020230101105045JJJJJJJJRPS       00000000000020230101000000002              PARTICIPANTE_a                                                                                                                                                                                                                                                                                                                               0T        000041162071        000000016964608000000000000000060090500000000000848230000000000000000N20000000000035398317326000000000000PARTICIPANTE_a                                                             AV PARTICIPANTE                                      0000000001PARTICIPANTE                  PARTICIPANTE                  São Paulo                                         SP60000000as@as.com                                                                                         00000000008482330000000000000000000000                                                                                          00000000000000000000000000000000000000000000000000000000000000000000000000000000000000000000000          0000000000000000000000000000000                              0000000000000000000000000                                                                                                                                                              COMISSÃO
20000001120230101105045LLLLLLLLRPS       0000000000002023010100000000263542443000124PARTICIPANTE_b                                                             AV PARTICIPANTE_b                                    1         PARTICIPANTE_b                PARTICIPANTE_b                FORTALEZA                                         CE60000000as@as.com                                                                  0T        000041162071        000000016964608000000000000000060090500000000000848230000000000000000N20000000000035398317326   060000007PARTICIPANTE_b                                                             AV PARTICIPANTE                                      0000000001PARTICIPANTE                  PARTICIPANTE                  São Paulo                                         SP60000000as@as.com                                                                                         00000000008482330000000000000000000000                                                                                          00000000000000000000000000000000000000000000000000000000000000000000000000000000000000000000000          0000000000000000000000000000000                              0000000000000000000000000                                                                                                                                                              COMISSÃO
20000001220230101105045MMMMMMMMRPS       0000000000002023010100000000263542443000124PARTICIPANTE_c                                                             AV PARTICIPANTE_c                                    1         PARTICIPANTE_c                PARTICIPANTE_c                BRASÍLIA                                          DF60000000as@as.com                                                                  0T        000041162071        000000016964608000000000000000060090500000000000848230000000000000000N20000000000035398317326701737700117PARTICIPANTE_c                                                             AV PARTICIPANTE                                      0000000001PARTICIPANTE                  PARTICIPANTE                  São Paulo                                         SP60000000as@as.com                                                                                         00000000008482330000000000000000000000                                                                                          00000000000000000000000000000000000000000000000000000000000000000000000000000000000000000000000          0000000000000000000000000000000                              0000000000000000000000000                                                                                                                                                              COMISSÃO
20000001320230101105045NNNNNNNNRPS       0000000000002023010100000000263542443000124PARTICIPANTE_d                                                             AV PARTICIPANTE_d                                    1         PARTICIPANTE_d                PARTICIPANTE_d                FORTALEZA                                         CE60000000as@as.com                                                                  0T        000041162071        000000016964608000000000000000060090500000000000848230000000000000000N20000000000035398317326000000000000PARTICIPANTE_d                                                             AV PARTICIPANTE                                      0000000001PARTICIPANTE                  PARTICIPANTE                  São Paulo                                         SP60000000as@as.com                                                                                         00000000008482330000000000000000000000                                                                                          00000000000000000000000000000000000000000000000000000000000000000000000000000000000000000000000          0000000000000000000000000000000                              0000000000000000000000000                                                                                                                                                              COMISSÃO
20000001420230101105045OOOOOOOORPS       0000000000002023010100000000100037543093073PARTICIPANTE_e                                                             AV PARTICIPANTE_e                                    1         PARTICIPANTE_e                PARTICIPANTE_e                FORTALEZA                                         CE60000000as@as.com                                                                  0T        000041162071        000000016964608000000000000000060090500000000000848230000000000000000N10000000000035398317326000000000000PARTICIPANTE_e                                                             AV PARTICIPANTE                                      0000000001PARTICIPANTE                  PARTICIPANTE                  São Paulo                                         SP60000000as@as.com                                                                                         00000000008482330000000000000000000000                                                                                          00000000000000000000000000000000000000000000000000000000000000000000000000000000000000000000000          0000000000000000000000000000000                              0000000000000000000000000                                                                                                                                                              COMISSÃO
20000001520230101105045PPPPPPPPRPS       0000000000002023010100000000100085985684148PARTICIPANTE_f                                                             AV PARTICIPANTE_f                                    1         PARTICIPANTE_f                PARTICIPANTE_f                FORTALEZA                                         CE60000000as@as.com                                                                  0T        000041162071        000000016964608000000000000000060090500000000000848230000000000000000N10000000000035398317326000000000000PARTICIPANTE_f                                                             AV PARTICIPANTE                                      0000000001PARTICIPANTE                  PARTICIPANTE                  São Paulo                                         SP60000000as@as.com                                                                                         00000000008482330000000000000000000000                                                                                          00000000000000000000000000000000000000000000000000000000000000000000000000000000000000000000000          0000000000000000000000000000000                              0000000000000000000000000                                                                                                                                                              COMISSÃO
90000001000000016964608000000000000000000000000848230000000000000000